{
  "contractName": "TestgroundGame",
  "abi": [
    {
      "inputs": [],
      "stateMutability": "nonpayable",
      "type": "constructor"
    },
    {
      "inputs": [
        {
          "internalType": "address",
          "name": "",
          "type": "address"
        }
      ],
      "name": "msgSenderToResult",
      "outputs": [
        {
          "internalType": "uint256",
          "name": "",
          "type": "uint256"
        }
      ],
      "stateMutability": "view",
      "type": "function",
      "constant": true
    },
    {
      "inputs": [
        {
          "internalType": "bytes32",
          "name": "requestId",
          "type": "bytes32"
        },
        {
          "internalType": "uint256",
          "name": "randomness",
          "type": "uint256"
        }
      ],
      "name": "rawFulfillRandomness",
      "outputs": [],
      "stateMutability": "nonpayable",
      "type": "function"
    },
    {
      "inputs": [
        {
          "internalType": "bytes32",
          "name": "",
          "type": "bytes32"
        }
      ],
      "name": "requestIdToMsgSender",
      "outputs": [
        {
          "internalType": "address",
          "name": "",
          "type": "address"
        }
      ],
      "stateMutability": "view",
      "type": "function",
      "constant": true
    },
    {
      "inputs": [
        {
          "internalType": "bytes32",
          "name": "",
          "type": "bytes32"
        }
      ],
      "name": "requestIdToRandomNumber",
      "outputs": [
        {
          "internalType": "uint256",
          "name": "",
          "type": "uint256"
        }
      ],
      "stateMutability": "view",
      "type": "function",
      "constant": true
    },
    {
      "inputs": [
        {
          "internalType": "uint256",
          "name": "userProvidedSeed",
          "type": "uint256"
        }
      ],
      "name": "roll",
      "outputs": [
        {
          "internalType": "bytes32",
          "name": "_requestId",
          "type": "bytes32"
        }
      ],
      "stateMutability": "nonpayable",
      "type": "function"
    }
  ],
  "bytecode": "0x60c060405273c7c463b90b393b4a0d3650aa70a08211a6d5fb79600160006101000a81548173ffffffffffffffffffffffffffffffffffffffff021916908373ffffffffffffffffffffffffffffffffffffffff16021790555034801561006557600080fd5b50738c7382f9d8f56b33781fe506e897a4f1e2d1725573326c977e6efc84e512bb9c30f76e30c160ed06fb8173ffffffffffffffffffffffffffffffffffffffff1660a08173ffffffffffffffffffffffffffffffffffffffff1660601b815250508073ffffffffffffffffffffffffffffffffffffffff1660808173ffffffffffffffffffffffffffffffffffffffff1660601b8152505050507f6e75b569a01ef56d18cab6a8e71e6600d6ce853834d4a5748b720d06f878b3a460001b600281905550655af3107a400060038190555060805160601c60a05160601c610fa261017060003960008181610445015261054f01526000818161017201526105130152610fa26000f3fe608060405234801561001057600080fd5b50600436106100575760003560e01c8063121dc7eb1461005c5780631f7b4f301461008c57806394985ddd146100bc5780639bef9200146100d8578063ac64b53214610108575b600080fd5b61007660048036038101906100719190610940565b610138565b6040516100839190610b5d565b60405180910390f35b6100a660048036038101906100a191906109a5565b61016b565b6040516100b39190610c16565b60405180910390f35b6100d660048036038101906100d19190610969565b610443565b005b6100f260048036038101906100ed9190610940565b6104df565b6040516100ff9190610cdf565b60405180910390f35b610122600480360381019061011d91906108ee565b6104f7565b60405161012f9190610cdf565b60405180910390f35b60046020528060005260406000206000915054906101000a900473ffffffffffffffffffffffffffffffffffffffff1681565b60006003547f000000000000000000000000000000000000000000000000000000000000000073ffffffffffffffffffffffffffffffffffffffff166370a08231306040518263ffffffff1660e01b81526004016101c99190610b5d565b60206040518083038186803b1580156101e157600080fd5b505afa1580156101f5573d6000803e3d6000fd5b505050506040513d601f19601f8201168201806040525081019061021991906109ce565b11610259576040517f08c379a000000000000000000000000000000000000000000000000000000000815260040161025090610c9f565b60405180910390fd5b600061026a6002546003548561050f565b9050336004600083815260200190815260200160002060006101000a81548173ffffffffffffffffffffffffffffffffffffffff021916908373ffffffffffffffffffffffffffffffffffffffff1602179055506000674563918244f400009050600160009054906101000a900473ffffffffffffffffffffffffffffffffffffffff1673ffffffffffffffffffffffffffffffffffffffff1663095ea7b330600a846103179190610d7d565b6040518363ffffffff1660e01b8152600401610334929190610baf565b602060405180830381600087803b15801561034e57600080fd5b505af1158015610362573d6000803e3d6000fd5b505050506040513d601f19601f820116820180604052508101906103869190610917565b50600160009054906101000a900473ffffffffffffffffffffffffffffffffffffffff1673ffffffffffffffffffffffffffffffffffffffff166323b872dd3330846040518463ffffffff1660e01b81526004016103e693929190610b78565b602060405180830381600087803b15801561040057600080fd5b505af1158015610414573d6000803e3d6000fd5b505050506040513d601f19601f820116820180604052508101906104389190610917565b508192505050919050565b7f000000000000000000000000000000000000000000000000000000000000000073ffffffffffffffffffffffffffffffffffffffff163373ffffffffffffffffffffffffffffffffffffffff16146104d1576040517f08c379a00000000000000000000000000000000000000000000000000000000081526004016104c890610cbf565b60405180910390fd5b6104db828261066d565b5050565b60066020528060005260406000206000915090505481565b60056020528060005260406000206000915090505481565b60007f000000000000000000000000000000000000000000000000000000000000000073ffffffffffffffffffffffffffffffffffffffff16634000aea07f0000000000000000000000000000000000000000000000000000000000000000858786604051602001610582929190610c31565b6040516020818303038152906040526040518463ffffffff1660e01b81526004016105af93929190610bd8565b602060405180830381600087803b1580156105c957600080fd5b505af11580156105dd573d6000803e3d6000fd5b505050506040513d601f19601f820116820180604052508101906106019190610917565b5060006106228584306000808a815260200190815260200160002054610816565b90506001600080878152602001908152602001600020546106439190610d27565b600080878152602001908152602001600020819055506106638582610852565b9150509392505050565b8060066000848152602001908152602001600020819055506006816106929190610e70565b600560006004600086815260200190815260200160002060009054906101000a900473ffffffffffffffffffffffffffffffffffffffff1673ffffffffffffffffffffffffffffffffffffffff1673ffffffffffffffffffffffffffffffffffffffff1681526020019081526020016000208190555060056006826107179190610e70565b14156108125760006801a055690d9db800009050600160009054906101000a900473ffffffffffffffffffffffffffffffffffffffff1673ffffffffffffffffffffffffffffffffffffffff166323b872dd306004600087815260200190815260200160002060009054906101000a900473ffffffffffffffffffffffffffffffffffffffff16846040518463ffffffff1660e01b81526004016107bd93929190610b78565b602060405180830381600087803b1580156107d757600080fd5b505af11580156107eb573d6000803e3d6000fd5b505050506040513d601f19601f8201168201806040525081019061080f9190610917565b50505b5050565b60008484848460405160200161082f9493929190610c5a565b6040516020818303038152906040528051906020012060001c9050949350505050565b60008282604051602001610867929190610b31565b60405160208183030381529060405280519060200120905092915050565b60008135905061089481610f10565b92915050565b6000815190506108a981610f27565b92915050565b6000813590506108be81610f3e565b92915050565b6000813590506108d381610f55565b92915050565b6000815190506108e881610f55565b92915050565b60006020828403121561090057600080fd5b600061090e84828501610885565b91505092915050565b60006020828403121561092957600080fd5b60006109378482850161089a565b91505092915050565b60006020828403121561095257600080fd5b6000610960848285016108af565b91505092915050565b6000806040838503121561097c57600080fd5b600061098a858286016108af565b925050602061099b858286016108c4565b9150509250929050565b6000602082840312156109b757600080fd5b60006109c5848285016108c4565b91505092915050565b6000602082840312156109e057600080fd5b60006109ee848285016108d9565b91505092915050565b610a0081610dd7565b82525050565b610a0f81610df5565b82525050565b610a26610a2182610df5565b610e5c565b82525050565b6000610a3782610cfa565b610a418185610d05565b9350610a51818560208601610e29565b610a5a81610eff565b840191505092915050565b6000610a72602b83610d16565b91507f4e6f7420656e6f756768204c494e4b202d2066696c6c20636f6e74726163742060008301527f77697468206661756365740000000000000000000000000000000000000000006020830152604082019050919050565b6000610ad8601f83610d16565b91507f4f6e6c7920565246436f6f7264696e61746f722063616e2066756c66696c6c006000830152602082019050919050565b610b1481610e1f565b82525050565b610b2b610b2682610e1f565b610e66565b82525050565b6000610b3d8285610a15565b602082019150610b4d8284610b1a565b6020820191508190509392505050565b6000602082019050610b7260008301846109f7565b92915050565b6000606082019050610b8d60008301866109f7565b610b9a60208301856109f7565b610ba76040830184610b0b565b949350505050565b6000604082019050610bc460008301856109f7565b610bd16020830184610b0b565b9392505050565b6000606082019050610bed60008301866109f7565b610bfa6020830185610b0b565b8181036040830152610c0c8184610a2c565b9050949350505050565b6000602082019050610c2b6000830184610a06565b92915050565b6000604082019050610c466000830185610a06565b610c536020830184610b0b565b9392505050565b6000608082019050610c6f6000830187610a06565b610c7c6020830186610b0b565b610c8960408301856109f7565b610c966060830184610b0b565b95945050505050565b60006020820190508181036000830152610cb881610a65565b9050919050565b60006020820190508181036000830152610cd881610acb565b9050919050565b6000602082019050610cf46000830184610b0b565b92915050565b600081519050919050565b600082825260208201905092915050565b600082825260208201905092915050565b6000610d3282610e1f565b9150610d3d83610e1f565b9250827fffffffffffffffffffffffffffffffffffffffffffffffffffffffffffffffff03821115610d7257610d71610ea1565b5b828201905092915050565b6000610d8882610e1f565b9150610d9383610e1f565b9250817fffffffffffffffffffffffffffffffffffffffffffffffffffffffffffffffff0483118215151615610dcc57610dcb610ea1565b5b828202905092915050565b6000610de282610dff565b9050919050565b60008115159050919050565b6000819050919050565b600073ffffffffffffffffffffffffffffffffffffffff82169050919050565b6000819050919050565b60005b83811015610e47578082015181840152602081019050610e2c565b83811115610e56576000848401525b50505050565b6000819050919050565b6000819050919050565b6000610e7b82610e1f565b9150610e8683610e1f565b925082610e9657610e95610ed0565b5b828206905092915050565b7f4e487b7100000000000000000000000000000000000000000000000000000000600052601160045260246000fd5b7f4e487b7100000000000000000000000000000000000000000000000000000000600052601260045260246000fd5b6000601f19601f8301169050919050565b610f1981610dd7565b8114610f2457600080fd5b50565b610f3081610de9565b8114610f3b57600080fd5b50565b610f4781610df5565b8114610f5257600080fd5b50565b610f5e81610e1f565b8114610f6957600080fd5b5056fea2646970667358221220fa73196d1f3471375a9ad5b273182ed07fd5d36582e58b5e574cf49125f9acae64736f6c63430008000033",
  "immutableReferences": {
    "1019": [
      {
        "length": 32,
        "start": 370
      },
      {
        "length": 32,
        "start": 1299
      }
    ],
    "1021": [
      {
        "length": 32,
        "start": 1093
      },
      {
        "length": 32,
        "start": 1359
      }
    ]
  },
  "source": "// SPDX-License-Identifier: MIT\npragma solidity 0.8.0;\n\nimport \"./MyERC20.sol\";\nimport \"./dependencies/VRFConsumerBase.sol\";\n\ncontract TestgroundGame is VRFConsumerBase {\n  MyERC20 testground_token = MyERC20(0xc7c463b90B393b4A0d3650Aa70a08211a6D5fB79);\n\n\n\n\n\n\n\n\n\n  bytes32 internal keyHash;\n  uint256 internal fee;\n\n  mapping(bytes32 => address) public requestIdToMsgSender;\n  mapping(address => uint256) public msgSenderToResult;\n  mapping(bytes32 => uint256) public requestIdToRandomNumber;\n\n\n\n  constructor()\n  public\n  VRFConsumerBase(0x8C7382F9D8f56b33781fE506E897a4F1e2d17255, 0x326C977E6efc84E512bB9C30f76E30c160eD06FB)\n  {\n    keyHash = 0x6e75b569a01ef56d18cab6a8e71e6600d6ce853834d4a5748b720d06f878b3a4;\n    fee = 0.0001 * 10 ** 18;\n  }\n\n  function roll(uint256 userProvidedSeed) public returns (bytes32 _requestId) {\n    require(LINK.balanceOf(address(this)) > fee, \"Not enough LINK - fill contract with faucet\");\n    bytes32 requestId = requestRandomness(keyHash, fee, userProvidedSeed);\n    requestIdToMsgSender[requestId] = msg.sender;\n\n\n    uint256 roll_price = 5000000000000000000;\n    testground_token.approve(address(this), roll_price * 10);\n    testground_token.transferFrom(msg.sender, address(this), roll_price);\n\n\n    return requestId;\n  }\n\n  function fulfillRandomness(bytes32 requestId, uint256 randomness) internal override {\n    requestIdToRandomNumber[requestId] = randomness;\n    msgSenderToResult[requestIdToMsgSender[requestId]] = randomness%6;\n    if(randomness%6==5)\n    {\n      uint256 prize = 30000000000000000000;\n      testground_token.transferFrom(address(this), requestIdToMsgSender[requestId], prize);\n    }\n  }\n}",
  "sourcePath": "/home/turupawn/Projects/Blockchain/TestgroundGameTruffle/contracts/TestgroundGame.sol",
  "compiler": {
    "name": "solc",
    "version": "0.8.0+commit.c7dfd78e.Emscripten.clang"
  },
  "schemaVersion": "3.4.0",
  "updatedAt": "2021-05-07T22:37:53.737Z",
  "networkType": "ethereum",
  "devdoc": {
    "kind": "dev",
    "methods": {},
    "version": 1
  },
  "userdoc": {
    "kind": "user",
    "methods": {},
    "version": 1
  }
}