{
  "contractName": "TestgroundGame",
  "abi": [
    {
      "inputs": [],
      "stateMutability": "nonpayable",
      "type": "constructor"
    },
    {
      "inputs": [
        {
          "internalType": "address",
          "name": "",
          "type": "address"
        }
      ],
      "name": "msgSenderToResult",
      "outputs": [
        {
          "internalType": "uint256",
          "name": "",
          "type": "uint256"
        }
      ],
      "stateMutability": "view",
      "type": "function",
      "constant": true
    },
    {
      "inputs": [
        {
          "internalType": "bytes32",
          "name": "requestId",
          "type": "bytes32"
        },
        {
          "internalType": "uint256",
          "name": "randomness",
          "type": "uint256"
        }
      ],
      "name": "rawFulfillRandomness",
      "outputs": [],
      "stateMutability": "nonpayable",
      "type": "function"
    },
    {
      "inputs": [
        {
          "internalType": "bytes32",
          "name": "",
          "type": "bytes32"
        }
      ],
      "name": "requestIdToMsgSender",
      "outputs": [
        {
          "internalType": "address",
          "name": "",
          "type": "address"
        }
      ],
      "stateMutability": "view",
      "type": "function",
      "constant": true
    },
    {
      "inputs": [
        {
          "internalType": "bytes32",
          "name": "",
          "type": "bytes32"
        }
      ],
      "name": "requestIdToRandomNumber",
      "outputs": [
        {
          "internalType": "uint256",
          "name": "",
          "type": "uint256"
        }
      ],
      "stateMutability": "view",
      "type": "function",
      "constant": true
    },
    {
      "inputs": [],
      "name": "approvee",
      "outputs": [
        {
          "internalType": "bytes32",
          "name": "_requestId",
          "type": "bytes32"
        }
      ],
      "stateMutability": "nonpayable",
      "type": "function"
    },
    {
      "inputs": [
        {
          "internalType": "address",
          "name": "recipient",
          "type": "address"
        }
      ],
      "name": "approveOtherContractt",
      "outputs": [],
      "stateMutability": "nonpayable",
      "type": "function"
    },
    {
      "inputs": [
        {
          "internalType": "uint256",
          "name": "userProvidedSeed",
          "type": "uint256"
        }
      ],
      "name": "roll",
      "outputs": [
        {
          "internalType": "bytes32",
          "name": "_requestId",
          "type": "bytes32"
        }
      ],
      "stateMutability": "nonpayable",
      "type": "function"
    }
  ],
  "bytecode": "0x60c060405273d6d897b8fbf9b82c493dc256a2924be41efda34f600160006101000a81548173ffffffffffffffffffffffffffffffffffffffff021916908373ffffffffffffffffffffffffffffffffffffffff16021790555034801561006557600080fd5b50738c7382f9d8f56b33781fe506e897a4f1e2d1725573326c977e6efc84e512bb9c30f76e30c160ed06fb8173ffffffffffffffffffffffffffffffffffffffff1660a08173ffffffffffffffffffffffffffffffffffffffff1660601b815250508073ffffffffffffffffffffffffffffffffffffffff1660808173ffffffffffffffffffffffffffffffffffffffff1660601b8152505050507f6e75b569a01ef56d18cab6a8e71e6600d6ce853834d4a5748b720d06f878b3a460001b600281905550655af3107a400060038190555060805160601c60a05160601c6112096101706000396000818161061801526107220152600081816101d201526106e601526112096000f3fe608060405234801561001057600080fd5b506004361061007d5760003560e01c8063710c1cc21161005b578063710c1cc2146100fe57806394985ddd1461011c5780639bef920014610138578063ac64b532146101685761007d565b8063121dc7eb146100825780631f7b4f30146100b25780635b64f288146100e2575b600080fd5b61009c60048036038101906100979190610b13565b610198565b6040516100a99190610d4e565b60405180910390f35b6100cc60048036038101906100c79190610b78565b6101cb565b6040516100d99190610e59565b60405180910390f35b6100fc60048036038101906100f79190610ac1565b6104a3565b005b610106610557565b6040516101139190610e59565b60405180910390f35b61013660048036038101906101319190610b3c565b610616565b005b610152600480360381019061014d9190610b13565b6106b2565b60405161015f9190610f22565b60405180910390f35b610182600480360381019061017d9190610ac1565b6106ca565b60405161018f9190610f22565b60405180910390f35b60046020528060005260406000206000915054906101000a900473ffffffffffffffffffffffffffffffffffffffff1681565b60006003547f000000000000000000000000000000000000000000000000000000000000000073ffffffffffffffffffffffffffffffffffffffff166370a08231306040518263ffffffff1660e01b81526004016102299190610d4e565b60206040518083038186803b15801561024157600080fd5b505afa158015610255573d6000803e3d6000fd5b505050506040513d601f19601f820116820180604052508101906102799190610ba1565b116102b9576040517f08c379a00000000000000000000000000000000000000000000000000000000081526004016102b090610ee2565b60405180910390fd5b60006102ca600254600354856106e2565b9050336004600083815260200190815260200160002060006101000a81548173ffffffffffffffffffffffffffffffffffffffff021916908373ffffffffffffffffffffffffffffffffffffffff1602179055506000674563918244f400009050600160009054906101000a900473ffffffffffffffffffffffffffffffffffffffff1673ffffffffffffffffffffffffffffffffffffffff1663095ea7b330600a846103779190610fc0565b6040518363ffffffff1660e01b8152600401610394929190610df2565b602060405180830381600087803b1580156103ae57600080fd5b505af11580156103c2573d6000803e3d6000fd5b505050506040513d601f19601f820116820180604052508101906103e69190610aea565b50600160009054906101000a900473ffffffffffffffffffffffffffffffffffffffff1673ffffffffffffffffffffffffffffffffffffffff166323b872dd3330846040518463ffffffff1660e01b815260040161044693929190610d69565b602060405180830381600087803b15801561046057600080fd5b505af1158015610474573d6000803e3d6000fd5b505050506040513d601f19601f820116820180604052508101906104989190610aea565b508192505050919050565b600073d6d897b8fbf9b82c493dc256a2924be41efda34f90508073ffffffffffffffffffffffffffffffffffffffff1663095ea7b38368056bc75e2d631000006040518363ffffffff1660e01b8152600401610500929190610da0565b602060405180830381600087803b15801561051a57600080fd5b505af115801561052e573d6000803e3d6000fd5b505050506040513d601f19601f820116820180604052508101906105529190610aea565b505050565b6000600160009054906101000a900473ffffffffffffffffffffffffffffffffffffffff1673ffffffffffffffffffffffffffffffffffffffff1663095ea7b3306969e10de76676d08000006040518363ffffffff1660e01b81526004016105c0929190610dc9565b602060405180830381600087803b1580156105da57600080fd5b505af11580156105ee573d6000803e3d6000fd5b505050506040513d601f19601f820116820180604052508101906106129190610aea565b5090565b7f000000000000000000000000000000000000000000000000000000000000000073ffffffffffffffffffffffffffffffffffffffff163373ffffffffffffffffffffffffffffffffffffffff16146106a4576040517f08c379a000000000000000000000000000000000000000000000000000000000815260040161069b90610f02565b60405180910390fd5b6106ae8282610840565b5050565b60066020528060005260406000206000915090505481565b60056020528060005260406000206000915090505481565b60007f000000000000000000000000000000000000000000000000000000000000000073ffffffffffffffffffffffffffffffffffffffff16634000aea07f0000000000000000000000000000000000000000000000000000000000000000858786604051602001610755929190610e74565b6040516020818303038152906040526040518463ffffffff1660e01b815260040161078293929190610e1b565b602060405180830381600087803b15801561079c57600080fd5b505af11580156107b0573d6000803e3d6000fd5b505050506040513d601f19601f820116820180604052508101906107d49190610aea565b5060006107f58584306000808a8152602001908152602001600020546109e9565b90506001600080878152602001908152602001600020546108169190610f6a565b600080878152602001908152602001600020819055506108368582610a25565b9150509392505050565b80600660008481526020019081526020016000208190555060068161086591906110d7565b600560006004600086815260200190815260200160002060009054906101000a900473ffffffffffffffffffffffffffffffffffffffff1673ffffffffffffffffffffffffffffffffffffffff1673ffffffffffffffffffffffffffffffffffffffff1681526020019081526020016000208190555060056006826108ea91906110d7565b14156109e55760006801a055690d9db800009050600160009054906101000a900473ffffffffffffffffffffffffffffffffffffffff1673ffffffffffffffffffffffffffffffffffffffff166323b872dd306004600087815260200190815260200160002060009054906101000a900473ffffffffffffffffffffffffffffffffffffffff16846040518463ffffffff1660e01b815260040161099093929190610d69565b602060405180830381600087803b1580156109aa57600080fd5b505af11580156109be573d6000803e3d6000fd5b505050506040513d601f19601f820116820180604052508101906109e29190610aea565b50505b5050565b600084848484604051602001610a029493929190610e9d565b6040516020818303038152906040528051906020012060001c9050949350505050565b60008282604051602001610a3a929190610d22565b60405160208183030381529060405280519060200120905092915050565b600081359050610a6781611177565b92915050565b600081519050610a7c8161118e565b92915050565b600081359050610a91816111a5565b92915050565b600081359050610aa6816111bc565b92915050565b600081519050610abb816111bc565b92915050565b600060208284031215610ad357600080fd5b6000610ae184828501610a58565b91505092915050565b600060208284031215610afc57600080fd5b6000610b0a84828501610a6d565b91505092915050565b600060208284031215610b2557600080fd5b6000610b3384828501610a82565b91505092915050565b60008060408385031215610b4f57600080fd5b6000610b5d85828601610a82565b9250506020610b6e85828601610a97565b9150509250929050565b600060208284031215610b8a57600080fd5b6000610b9884828501610a97565b91505092915050565b600060208284031215610bb357600080fd5b6000610bc184828501610aac565b91505092915050565b610bd38161101a565b82525050565b610be281611038565b82525050565b610bf9610bf482611038565b6110c3565b82525050565b6000610c0a82610f3d565b610c148185610f48565b9350610c24818560208601611090565b610c2d81611166565b840191505092915050565b610c418161106c565b82525050565b610c508161107e565b82525050565b6000610c63602b83610f59565b91507f4e6f7420656e6f756768204c494e4b202d2066696c6c20636f6e74726163742060008301527f77697468206661756365740000000000000000000000000000000000000000006020830152604082019050919050565b6000610cc9601f83610f59565b91507f4f6e6c7920565246436f6f7264696e61746f722063616e2066756c66696c6c006000830152602082019050919050565b610d0581611062565b82525050565b610d1c610d1782611062565b6110cd565b82525050565b6000610d2e8285610be8565b602082019150610d3e8284610d0b565b6020820191508190509392505050565b6000602082019050610d636000830184610bca565b92915050565b6000606082019050610d7e6000830186610bca565b610d8b6020830185610bca565b610d986040830184610cfc565b949350505050565b6000604082019050610db56000830185610bca565b610dc26020830184610c38565b9392505050565b6000604082019050610dde6000830185610bca565b610deb6020830184610c47565b9392505050565b6000604082019050610e076000830185610bca565b610e146020830184610cfc565b9392505050565b6000606082019050610e306000830186610bca565b610e3d6020830185610cfc565b8181036040830152610e4f8184610bff565b9050949350505050565b6000602082019050610e6e6000830184610bd9565b92915050565b6000604082019050610e896000830185610bd9565b610e966020830184610cfc565b9392505050565b6000608082019050610eb26000830187610bd9565b610ebf6020830186610cfc565b610ecc6040830185610bca565b610ed96060830184610cfc565b95945050505050565b60006020820190508181036000830152610efb81610c56565b9050919050565b60006020820190508181036000830152610f1b81610cbc565b9050919050565b6000602082019050610f376000830184610cfc565b92915050565b600081519050919050565b600082825260208201905092915050565b600082825260208201905092915050565b6000610f7582611062565b9150610f8083611062565b9250827fffffffffffffffffffffffffffffffffffffffffffffffffffffffffffffffff03821115610fb557610fb4611108565b5b828201905092915050565b6000610fcb82611062565b9150610fd683611062565b9250817fffffffffffffffffffffffffffffffffffffffffffffffffffffffffffffffff048311821515161561100f5761100e611108565b5b828202905092915050565b600061102582611042565b9050919050565b60008115159050919050565b6000819050919050565b600073ffffffffffffffffffffffffffffffffffffffff82169050919050565b6000819050919050565b600061107782611062565b9050919050565b600061108982611062565b9050919050565b60005b838110156110ae578082015181840152602081019050611093565b838111156110bd576000848401525b50505050565b6000819050919050565b6000819050919050565b60006110e282611062565b91506110ed83611062565b9250826110fd576110fc611137565b5b828206905092915050565b7f4e487b7100000000000000000000000000000000000000000000000000000000600052601160045260246000fd5b7f4e487b7100000000000000000000000000000000000000000000000000000000600052601260045260246000fd5b6000601f19601f8301169050919050565b6111808161101a565b811461118b57600080fd5b50565b6111978161102c565b81146111a257600080fd5b50565b6111ae81611038565b81146111b957600080fd5b50565b6111c581611062565b81146111d057600080fd5b5056fea2646970667358221220d7af49f6da129fbfc9963635fedcc68c077e311ee6900247a530264d841717ed64736f6c63430008000033",
  "immutableReferences": {
    "1055": [
      {
        "length": 32,
        "start": 466
      },
      {
        "length": 32,
        "start": 1766
      }
    ],
    "1057": [
      {
        "length": 32,
        "start": 1560
      },
      {
        "length": 32,
        "start": 1826
      }
    ]
  },
  "source": "// SPDX-License-Identifier: MIT\npragma solidity 0.8.0;\n\nimport \"./MyERC20.sol\";\nimport \"./dependencies/VRFConsumerBase.sol\";\n\ncontract TestgroundGame is VRFConsumerBase {\n  MyERC20 testground_token = MyERC20(0xd6d897b8FBF9b82c493dc256A2924bE41efda34f);\n\n\n\n\n\n\n\n\n\n  bytes32 internal keyHash;\n  uint256 internal fee;\n\n  mapping(bytes32 => address) public requestIdToMsgSender;\n  mapping(address => uint256) public msgSenderToResult;\n  mapping(bytes32 => uint256) public requestIdToRandomNumber;\n\n\n\n  constructor()\n  public\n  VRFConsumerBase(0x8C7382F9D8f56b33781fE506E897a4F1e2d17255, 0x326C977E6efc84E512bB9C30f76E30c160eD06FB)\n  {\n    keyHash = 0x6e75b569a01ef56d18cab6a8e71e6600d6ce853834d4a5748b720d06f878b3a4;\n    fee = 0.0001 * 10 ** 18;\n  }\n\n  function approvee() public returns (bytes32 _requestId) {\n    testground_token.approve(address(this), 500000000000000000000000);\n  }\n\n    function approveOtherContractt(address recipient) public {\n      IERC20 token = MyERC20(0xd6d897b8FBF9b82c493dc256A2924bE41efda34f);\n      token.approve(recipient, 100e18);\n    }\n\n  function roll(uint256 userProvidedSeed) public returns (bytes32 _requestId) {\n    require(LINK.balanceOf(address(this)) > fee, \"Not enough LINK - fill contract with faucet\");\n    bytes32 requestId = requestRandomness(keyHash, fee, userProvidedSeed);\n    requestIdToMsgSender[requestId] = msg.sender;\n\n\n    uint256 roll_price = 5000000000000000000;\n    testground_token.approve(address(this), roll_price * 10);\n    testground_token.transferFrom(msg.sender, address(this), roll_price);\n\n\n    return requestId;\n  }\n\n  function fulfillRandomness(bytes32 requestId, uint256 randomness) internal override {\n    requestIdToRandomNumber[requestId] = randomness;\n    msgSenderToResult[requestIdToMsgSender[requestId]] = randomness%6;\n    if(randomness%6==5)\n    {\n      uint256 prize = 30000000000000000000;\n      testground_token.transferFrom(address(this), requestIdToMsgSender[requestId], prize);\n    }\n  }\n}",
  "sourcePath": "/home/turupawn/Projects/Blockchain/TestgroundGameTruffle/contracts/TestgroundGame.sol",
  "compiler": {
    "name": "solc",
    "version": "0.8.0+commit.c7dfd78e.Emscripten.clang"
  },
  "schemaVersion": "3.4.0",
  "updatedAt": "2021-05-07T23:49:38.741Z",
  "networkType": "ethereum",
  "devdoc": {
    "kind": "dev",
    "methods": {},
    "version": 1
  },
  "userdoc": {
    "kind": "user",
    "methods": {},
    "version": 1
  }
}