{
  "contractName": "OptionTrades",
  "abi": [
    {
      "inputs": [],
      "name": "click_count",
      "outputs": [
        {
          "internalType": "uint256",
          "name": "",
          "type": "uint256"
        }
      ],
      "stateMutability": "view",
      "type": "function",
      "constant": true
    },
    {
      "inputs": [],
      "name": "click",
      "outputs": [],
      "stateMutability": "nonpayable",
      "type": "function"
    }
  ],
  "bytecode": "0x60806040526000805534801561001457600080fd5b50610173806100246000396000f3fe608060405234801561001057600080fd5b50600436106100365760003560e01c8063553542ba1461003b5780637d55923d14610059575b600080fd5b610043610063565b6040516100509190610093565b60405180910390f35b610061610069565b005b60005481565b600160008082825461007b91906100ae565b92505081905550565b61008d81610104565b82525050565b60006020820190506100a86000830184610084565b92915050565b60006100b982610104565b91506100c483610104565b9250827fffffffffffffffffffffffffffffffffffffffffffffffffffffffffffffffff038211156100f9576100f861010e565b5b828201905092915050565b6000819050919050565b7f4e487b7100000000000000000000000000000000000000000000000000000000600052601160045260246000fdfea26469706673582212200f2e6a3494238dded8e07fd6cdf9853794102f22b687a32194e41c27c5e9553d64736f6c63430008000033",
  "immutableReferences": {},
  "source": "pragma solidity 0.8.0;\n\nimport \"./dependencies/LinkTokenInterface.sol\";\nimport \"./dependencies/AggregatorV3Interface.sol\";\n\ncontract OptionTrades {\n    uint256 public click_count = 0;\n\n    function click() public\n    {\n        click_count+=1;\n    }\n}",
  "sourcePath": "/home/turupawn/Projects/Blockchain/TrufflePlayground/contracts/OptionTrades.sol",
  "compiler": {
    "name": "solc",
    "version": "0.8.0+commit.c7dfd78e.Emscripten.clang"
  },
  "schemaVersion": "3.4.0",
  "updatedAt": "2021-05-07T19:17:18.646Z",
  "networkType": "ethereum",
  "devdoc": {
    "kind": "dev",
    "methods": {},
    "version": 1
  },
  "userdoc": {
    "kind": "user",
    "methods": {},
    "version": 1
  }
}